:100000000C945D000C9485000C9485000C94850084
:100010000C9485000C9485000C9485000C9485004C
:100020000C9485000C9485000C9485000C9485003C
:100030000C9485000C9485000C9485000C9485002C
:100040000C940D020C9485000C9485000C94850092
:100050000C9485000C9485000C9485000C9485000C
:100060000C9485000C94850000000008000201003B
:100070000003040700000000000000000000000072
:10008000250028002B0000000000240027002A0083
:10009000040404040404040402020202020203032E
:1000A0000303030301020408102040800102040836
:1000B0001020010204081020380311241FBECFEFC6
:1000C000D8E0DEBFCDBF11E0A0E0B1E0E2E9F9E0A9
:1000D00002C005900D92A032B107D9F721E0A0E24D
:1000E000B1E001C01D92AB33B207E1F710E0CDE5FE
:1000F000D0E004C02197FE010E94A003CC35D107B7
:10010000C9F70E9457020C94C7040C94000090E0B9
:10011000FC01EC55FF4F2491FC01E057FF4F849107
:10012000882399F090E0880F991FFC01EA57FF4F50
:10013000A591B491FC01E458FF4F859194918FB73C
:10014000F894EC91E22BEC938FBF089590E0FC01C2
:10015000E859FF4F2491FC01EC55FF4F3491FC010D
:10016000E057FF4FE491EE2309F43CC0222339F11C
:10017000233091F038F42130A9F0223001F584B514
:100180008F7D12C0273091F02830A1F02430B9F4CF
:10019000809180008F7D03C0809180008F77809355
:1001A00080000DC084B58F7784BD09C08091B000F8
:1001B0008F7703C08091B0008F7D8093B000F0E016
:1001C000EE0FFF1FE458FF4FA591B4919FB7F8942D
:1001D000611104C08C913095382302C0EC913E2B04
:1001E0003C939FBF08953FB7F8948091250190916B
:1001F0002601A0912701B091280126B5A89B05C032
:100200002F3F19F00196A11DB11D3FBFBA2FA92F95
:10021000982F8827820F911DA11DB11DBC01CD0112
:1002200042E0660F771F881F991F4A95D1F70895FE
:100230008F929F92AF92BF92CF92DF92EF92FF92F6
:100240006B017C010E94F3004B015C01C114D104DD
:10025000E104F104F1F00E94F300DC01CB01881904
:100260009909AA09BB09883E9340A105B10570F31D
:1002700021E0C21AD108E108F10888EE880E83E077
:10028000981EA11CB11CC114D104E104F10419F79A
:10029000DDCFFF90EF90DF90CF90BF90AF909F9019
:1002A0008F9008951F93CF93DF93162FC9E2D1E06B
:1002B000682F88810E94A60014FB662760F98A8156
:1002C0000E94A60015FB662760F98C810E94A6009B
:1002D00016FB662760F98E810E94A600812F012EF1
:1002E000000C990B692F661F6627661F88850E9480
:1002F000A6006FE070E080E090E00E94180161E0ED
:100300008A850E94A6006FE070E080E090E00E9485
:10031000180160E08A850E94A6006FE070E080E02E
:1003200090E00E941801612F61708A810E94A600EE
:1003300011FB662760F98C810E94A60012FB6627DC
:1003400060F98E810E94A60013FB662760F98885FC
:100350000E94A6006FE070E080E090E00E9418012B
:1003600061E08A850E94A6006FE070E080E090E086
:100370000E94180160E08A850E94A6006FE070E08C
:1003800080E090E0DF91CF911F910C941801682FCD
:1003900080E090E00C9452010F931F93CF93DF9372
:1003A000EC01FC018F01081B190B21912111FACFDF
:1003B000080F191FC017D10731F0699181E090E053
:1003C0000E945201F7CFDF91CF911F910F910895B5
:1003D0000F931F93CF93DF938C01677028E0629F88
:1003E000C001112480640E94C701E801085F1F4F0B
:1003F000699181E090E00E945201C017D107C1F7D6
:1004000081E00E94C70164E170E080E090E0DF914C
:10041000CF911F910F910C9418011F920F920FB65C
:100420000F9211242F933F938F939F93AF93BF937A
:100430008091210190912201A0912301B09124018A
:100440003091200123E0230F2D3720F40196A11DC8
:10045000B11D05C026E8230F0296A11DB11D2093F2
:1004600020018093210190932201A0932301B09356
:1004700024018091250190912601A0912701B0913E
:1004800028010196A11DB11D80932501909326019D
:10049000A0932701B0932801BF91AF919F918F91B5
:1004A0003F912F910F900FBE0F901F901895789449
:1004B00084B5826084BD84B5816084BD85B5826069
:1004C00085BD85B5816085BD80916E00816080931A
:1004D0006E00109281008091810082608093810083
:1004E0008091810081608093810080918000816093
:1004F000809380008091B10084608093B1008091EE
:10050000B00081608093B00080917A008460809315
:100510007A0080917A00826080937A0080917A00DC
:10052000816080937A0080917A00806880937A005D
:100530001092C10083E30E94C7016FE070E080E089
:1005400090E00E94180182E30E94C7016FE070E012
:1005500080E090E00E94180188E20E94C7016FE0ED
:1005600070E080E090E00E94180181E00E94C701E5
:100570006FE070E080E090E00E9418018CE00E9443
:10058000C7016FE070E080E090E00E94180160E039
:1005900088E091E00E94E80161E080E091E00E9443
:1005A000E80186E191E00E94CC01809135018A5FEB
:1005B00080680E94C70182E090E00E94A6038C013F
:1005C00082E090E00E94A603EC014AE0B8018AE0D4
:1005D00090E00E946B034AE0BE0184E39BE00E942E
:1005E0006B03F801608181E090E00E945201F80104
:1005F000618181E090E00E9452016EE281E090E032
:100600000E9452017E016E01F4E0CF0ED11CF70171
:1006100061917F0181E090E00E945201CE14DF04DD
:10062000B1F7C8010E943E04CE010E943E048CE155
:1006300091E00E94CC01C0E0D0E0809136018C5F57
:1006400080680E94C70160E081E090E00E94520152
:10065000809136018C5F80680E94C70161E081E073
:1006600090E00E945201209741F30E940000E5CFE4
:10067000CF93DF93C9E2D1E01C8680E48D8788E0C8
:1006800090E09B878A878AE090E09983888387E05F
:1006900090E09987888786E090E09F838E8385E04D
:1006A00090E09D838C8384E090E09B838A8388E044
:1006B0000E94870088810E94870088850E948700A9
:1006C0008E810E9487008C810E9487008A81DF9141
:1006D000CF910C948700BB274A3031F4992322F440
:1006E000BDE2909581959F4F0C947703BB27FB014A
:1006F0005527AA27880F991FAA1FA41710F0A41B1B
:1007000083955051B9F7A05DAA3308F0A95DA19374
:10071000009779F7B111B1931192CB010C9490032A
:10072000DC01FC01672F71917723E1F7329704C058
:100730007C916D9370836291AE17BF07C8F30895E3
:10074000EE0FFF1F0590F491E02D09940F931F9376
:10075000CF93DF938230910510F482E090E0E09136
:100760003901F0913A0120E030E0A0E0B0E03097AC
:1007700019F1408151810281138148175907C8F04E
:100780008417950769F4109731F012960C9312971D
:1007900013961C9327C00093390110933A0122C08D
:1007A0002115310519F04217530718F49A01BD01BC
:1007B000EF01DF01F801DBCF21153105F9F0281B2E
:1007C000390B2430310580F48A819B8161157105D4
:1007D00021F0FB019383828304C090933A018093BC
:1007E0003901FE01329644C0FE01E20FF31F8193EE
:1007F000919322503109398328833AC020913701DF
:1008000030913801232B41F42091120130911301D2
:10081000309338012093370120911001309111015C
:100820002115310541F42DB73EB740911401509187
:100830001501241B350BE0913701F0913801E217C7
:10084000F307A0F42E1B3F0B2817390778F0AC01F3
:100850004E5F5F4F2417350748F04E0F5F1F5093D0
:100860003801409337018193919302C0E0E0F0E0BA
:10087000CF01DF91CF911F910F910895CF93DF9317
:10088000009709F481C0FC01329713821282A09173
:100890003901B0913A01109781F420813181820FA2
:1008A000931F20913701309138012817390751F5EE
:1008B000F0933801E093370167C0ED0120E030E0AC
:1008C000CE17DF0740F44A815B819E014115510537
:1008D000F1F0EA01F5CFD383C28340815181840FC7
:1008E000951FC817D90759F488819981840F951FDE
:1008F0000296918380838A819B81938382832115D1
:10090000310529F4F0933A01E09339013DC0E90142
:10091000FB83EA8349915991C40FD51FEC17FD075A
:1009200061F480819181840F951F0296E90199837A
:100930008883828193819B838A83E0E0F0E0129632
:100940008D919C911397009719F0FD01DC01F7CF71
:100950008D919C9111979D012E5F3F4F820F931FA8
:1009600020913701309138012817390769F4309701
:1009700029F410923A011092390102C013821282B6
:10098000B0933801A0933701DF91CF910895F89487
:02099000FFCF97
:1009920008141404070707000002050507070700EB
:1009A20000003B0180004C6F636B210020686900EE
:00000001FF
