:100000000C9462000C948A000C948A000C948A0070
:100010000C948A000C948A000C948A000C948A0038
:100020000C948A000C948A000C948A000C948A0028
:100030000C948A000C948A000C948A000C948A0018
:100040000C940A020C948A000C948A000C948A0086
:100050000C948A000C948A000C948A000C948A00F8
:100060000C948A000C948A000000000023002600F3
:10007000290000000000240027002A0000000000E2
:10008000250028002B0004040404040404040202D4
:100090000202020203030303030301020408102007
:1000A0004080010204081020010204081020000012
:1000B0000008000201000003040700000000000027
:1000C0000000130411241FBECFEFD8E0DEBFCDBF68
:1000D00011E0A0E0B1E0E6ECFFE002C005900D9277
:1000E000AA31B107D9F721E0AAE1B1E001C01D9220
:1000F000A933B207E1F710E0C2E6D0E004C02197CF
:10010000FE010E94BA06C136D107C9F70E949902C2
:100110000C94E1070C94000090E0FC01E255FF4FC5
:100120002491FC01E656FF4F3491FC01EA57FF4F42
:10013000E491EE2309F43CC0222339F1233091F0FD
:1001400038F42130A9F0223001F584B58F7D12C03A
:10015000273091F02830A1F02430B9F4809180004C
:100160008F7D03C0809180008F77809380000DC0C9
:1001700084B58F7784BD09C08091B0008F7703C0AC
:100180008091B0008F7D8093B000F0E0EE0FFF1FF4
:10019000E458FF4FA591B4919FB7F894611104C042
:1001A0008C913095382302C0EC913E2B3C939FBF3D
:1001B0000895CF93DF9390E0FC01E656FF4F249122
:1001C000FC01EA57FF4F8491882361F190E0880F8A
:1001D000991FFC01EE58FF4FC591D491FC01E458E2
:1001E000FF4FA591B491611109C09FB7F894888120
:1001F000209582238883EC912E230BC0623061F41A
:100200009FB7F8948881322F309583238883EC91AF
:100210002E2B2C939FBF06C08FB7F894E8812E2B0E
:1002200028838FBFDF91CF9108953FB7F8948091D5
:10023000230190912401A0912501B091260126B5BA
:10024000A89B05C02F3F19F00196A11DB11D3FBF0E
:10025000BA2FA92F982F8827820F911DA11DB11D9C
:10026000BC01CD0142E0660F771F881F991F4A9598
:10027000D1F708958F929F92AF92BF92CF92DF9263
:10028000EF92FF926B017C010E9415014B015C0112
:10029000C114D104E104F104F1F00E941501DC0164
:1002A000CB0188199909AA09BB09883E9340A10589
:1002B000B10570F321E0C21AD108E108F10888EE17
:1002C000880E83E0981EA11CB11CC114D104E10466
:1002D000F10419F7DDCFFF90EF90DF90CF90BF9042
:1002E000AF909F908F9008951F93CF93DF93162F19
:1002F000C7E2D1E0682F88810E948C0014FB66273A
:1003000060F98A810E948C0015FB662760F98C8158
:100310000E948C0016FB662760F98E810E948C007B
:10032000812F012E000C990B692F661F6627661F0F
:1003300088850E948C006FE070E080E090E00E9471
:100340003A0161E08A850E948C006FE070E080E0F5
:1003500090E00E943A0160E08A850E948C006FE084
:1003600070E080E090E00E943A01612F61708A8124
:100370000E948C0011FB662760F98C810E948C0022
:1003800012FB662760F98E810E948C0013FB6627A2
:1003900060F988850E948C006FE070E080E090E05A
:1003A0000E943A0161E08A850E948C006FE070E053
:1003B00080E090E00E943A0160E08A850E948C0013
:1003C0006FE070E080E090E0DF91CF911F910C949E
:1003D0003A01682F80E090E00C9474010F931F9312
:1003E000CF93DF93EC01FC018F01081B190B2191C6
:1003F0002111FACF080F191FC017D10731F06991E9
:1004000081E090E00E947401F7CFDF91CF911F91BE
:100410000F9108951F920F920FB60F9211242F93F0
:100420003F938F939F93AF93BF9380911F019091C0
:100430002001A0912101B091220130911E0123E001
:10044000230F2D3720F40196A11DB11D05C026E80C
:10045000230F0296A11DB11D20931E0180931F0141
:1004600090932001A0932101B09322018091230158
:1004700090912401A0912501B09126010196A11D22
:10048000B11D8093230190932401A0932501B09383
:100490002601BF91AF919F918F913F912F910F9026
:1004A0000FBE0F901F901895CF92DF92EF92FF92A0
:1004B0000F931F93E82FF92F05C00150110921094F
:1004C000310961F1908196239417B9F305C0015069
:1004D00011092109310911F1908196239413F7CF65
:1004E000C12CD12CE12CF12C0AC08FEFC81AD80AEC
:1004F000E80AF80A0C151D052E053F0579F08081E4
:100500008623841791F36C2D7D2D8E2D9F2D1F91A9
:100510000F91FF90EF90DF90CF90089560E070E032
:1005200080E090E01F910F91FF90EF90DF90CF90CF
:100530000895789484B5826084BD84B5816084BD5B
:1005400085B5826085BD85B5816085BD80916E0071
:10055000816080936E0010928100809181008260A2
:1005600080938100809181008160809381008091DF
:1005700080008160809380008091B10084608093CE
:10058000B1008091B00081608093B00080917A00CA
:10059000846080937A0080917A00826080937A00F0
:1005A00080917A00816080937A0080917A008068DF
:1005B00080937A001092C10083E30E94E9016FE00A
:1005C00070E080E090E00E943A0182E30E94E9013D
:1005D0006FE070E080E090E00E943A0188E20E94C3
:1005E000E9016FE070E080E090E00E943A0181E074
:1005F0000E94E9016FE070E080E090E00E943A0123
:100600008CE00E94E9016FE070E080E090E00E94E1
:100610003A0161E08CE00E94D90060E08DE00E9428
:10062000D9008EE00E94E90188E40E94E901C0E05F
:10063000D1E008E011E0699181E090E00E9474014E
:100640000C171D07C1F781E00E94E90164E170E029
:1006500080E090E00E943A018EE091E00E94EE017D
:1006600080913301855F80680E94E90185E191E016
:100670000E94EE018CE00E94E90193E0292E312CCA
:1006800023E2822E912C30E0A32E30E0B32E60E0E6
:100690008CE00E948C00C1010197F1F761E08CE0D1
:1006A0000E948C00C4010197F1F760E08CE00E9489
:1006B0008C00E7EAF0E06491E3E9F0E08491E82F50
:1006C000F0E0EE0FFF1FE859FF4F8591949100E491
:1006D00012E42FE030E0462F0E94540261157105AC
:1006E0008105910549F0DC01CB010196A11DB11DE9
:1006F000BC01CD019F7003C060E070E0CB010E949F
:10070000980528E23EE74CE05DE30E94290620E0E0
:1007100030E040E05FE30E94290620E030E048EC52
:1007200052E40E94EE046B017C0160931A01709305
:100730001B0180931C0190931D01809133018A5FFE
:1007400080680E94E90182E090E00E94C0068C016E
:1007500082E090E00E94C006EC01C701B6010E9451
:1007600060052B013C01072E000C880B990B0E94A1
:1007700098059B01AC01C701B6010E9481046B0181
:100780007C0120E030E0A9010E942406181624F024
:10079000F7FAF094F7F8F0944AE0B801C2010E9429
:1007A0004C0420E030E44CE156E4C701B6010E945D
:1007B00029060E946005DC01CB014AE0BE010E94CF
:1007C0004C04F801608181E090E00E947401F8011E
:1007D000618181E090E00E9474016EE281E090E02E
:1007E0000E947401688181E090E00E947401698137
:1007F00081E090E00E947401C8010E945807CE0178
:100800000E94580784E191E00E94EE0162E070E0EE
:1008100080E090E00E943A01A114B10409F437CFBE
:100820000E94000034CFCF93DF93C7E2D1E01C8653
:1008300080E48D8782E090E09B878A8783E090E068
:100840009983888387E090E09987888786E090E0A5
:100850009F838E8385E090E09D838C8384E090E08D
:100860009B838A8361E082E00E94D90061E08881F5
:100870000E94D90061E088850E94D90061E08E81E4
:100880000E94D90061E08C810E94D90061E08A81D8
:10089000DF91CF910C94D900BB274A3031F49923D2
:1008A00022F4BDE2909581959F4F0C945804BB278C
:1008B000FB015527AA27880F991FAA1FA41710F01C
:1008C000A41B83955051B9F7A05DAA3308F0A95D28
:1008D000A193009779F7B111B1931192CB010C94C8
:1008E0007104DC01FC01672F71917723E1F73297E6
:1008F00004C07C916D9370836291AE17BF07C8F3FB
:1009000008955058BB27AA270E9499040C94EA0521
:100910000E94DC0538F00E94E30520F039F49F3F87
:1009200019F426F40C94D9050EF4E095E7FB0C9429
:10093000D305E92F0E94FB0558F3BA176207730726
:100940008407950720F079F4A6F50C941D060EF4A3
:10095000E0950B2EBA2FA02D0B01B90190010C01CF
:10096000CA01A0011124FF27591B99F0593F50F4E7
:10097000503E68F11A16F040A22F232F342F44273F
:10098000585FF3CF469537952795A795F040539537
:10099000C9F77EF41F16BA0B620B730B840BBAF007
:1009A0009150A1F0FF0FBB1F661F771F881FC2F772
:1009B0000EC0BA0F621F731F841F48F48795779586
:1009C0006795B795F7959E3F08F0B0CF9395880F40
:1009D00008F09927EE0F9795879508950E940205D4
:1009E0000C94EA050E94E30558F00E94DC0540F0F3
:1009F00029F45F3F29F00C94D30551110C941E0685
:100A00000C94D9050E94FB0568F39923B1F3552393
:100A100091F3951B550BBB27AA2762177307840711
:100A200038F09F5F5F4F220F331F441FAA1FA9F3A7
:100A300035D00E2E3AF0E0E832D091505040E69595
:100A4000001CCAF72BD0FE2F29D0660F771F881FF6
:100A5000BB1F261737074807AB07B0E809F0BB0BE9
:100A6000802DBF01FF2793585F4F3AF09E3F5105FD
:100A700078F00C94D3050C941E065F3FE4F3983E87
:100A8000D4F3869577956795B795F7959F5FC9F7E6
:100A9000880F911D9695879597F90895E1E0660F67
:100AA000771F881FBB1F621773078407BA0720F0E0
:100AB000621B730B840BBA0BEE1F88F7E095089549
:100AC0000E9467056894B1110C941E0608950E9457
:100AD000030688F09F5798F0B92F9927B751B0F0C7
:100AE000E1F0660F771F881F991F1AF0BA95C9F7B2
:100AF00014C0B13091F00E941D06B1E008950C942D
:100B00001D06672F782F8827B85F39F0B93FCCF3DF
:100B1000869577956795B395D9F73EF4909580952E
:100B2000709561957F4F8F4F9F4F0895E89409C04E
:100B300097FB3EF490958095709561957F4F8F4F10
:100B40009F4F9923A9F0F92F96E9BB279395F69526
:100B5000879577956795B795F111F8CFFAF4BB0FA4
:100B600011F460FF1BC06F5F7F4F8F4F9F4F16C008
:100B7000882311F096E911C0772321F09EE8872F92
:100B8000762F05C0662371F096E8862F70E060E04E
:100B90002AF09A95660F771F881FDAF7880F9695C7
:100BA000879597F9089597F99F6780E870E060E06E
:100BB00008959FEF80EC089500240A9416161706F6
:100BC00018060906089500240A941216130614063E
:100BD00005060895092E0394000C11F4882352F0A1
:100BE000BB0F40F4BF2B11F460FF04C06F5F7F4F59
:100BF0008F4F9F4F089557FD9058440F551F59F040
:100C00005F3F71F04795880F97FB991F61F09F3FF9
:100C100079F087950895121613061406551FF2CF22
:100C20004695F1DF08C0161617061806991FF1CF72
:100C300086957105610508940895E894BB27662799
:100C40007727CB0197F908950E94960608F48FEF55
:100C500008950E943C060C94EA050E94DC0538F0D9
:100C60000E94E30520F0952311F00C94D3050C9419
:100C7000D90511240C941E060E94FB0570F3959F64
:100C8000C1F3950F50E0551F629FF001729FBB2783
:100C9000F00DB11D639FAA27F00DB11DAA1F649F1F
:100CA0006627B00DA11D661F829F2227B00DA11DD2
:100CB000621F739FB00DA11D621F839FA00D611D58
:100CC000221F749F3327A00D611D231F849F600D79
:100CD000211D822F762F6A2F11249F5750409AF0A2
:100CE000F1F088234AF0EE0FFF1FBB1F661F771F2E
:100CF000881F91505040A9F79E3F510580F00C94F9
:100D0000D3050C941E065F3FE4F3983ED4F386951A
:100D100077956795B795F795E7959F5FC1F7FE2B98
:100D2000880F911D9695879597F90895990F00085A
:100D3000550FAA0BE0E8FEEF16161706E807F907AD
:100D4000C0F012161306E407F50798F0621B730B48
:100D5000840B950B39F40A2661F0232B242B252BC9
:100D600021F408950A2609F4A140A6958FEF811D6C
:100D7000811D0895EE0FFF1F0590F491E02D099459
:100D80000F931F93CF93DF938230910510F482E08D
:100D900090E0E0913701F091380120E030E0A0E0F0
:100DA000B0E0309719F140815181028113814817D9
:100DB0005907C8F08417950769F4109731F0129617
:100DC0000C93129713961C9327C00093370110932E
:100DD000380122C02115310519F04217530718F4C4
:100DE0009A01BD01EF01DF01F801DBCF21153105CB
:100DF000F9F0281B390B2430310580F48A819B815E
:100E00006115710521F0FB019383828304C09093E7
:100E1000380180933701FE01329644C0FE01E20F93
:100E2000F31F8193919322503109398328833AC06B
:100E30002091350130913601232B41F420910A0194
:100E400030910B0130933601209335012091080138
:100E5000309109012115310541F42DB73EB740917C
:100E60000C0150910D01241B350BE0913501F091DF
:100E70003601E217F307A0F42E1B3F0B28173907A2
:100E800078F0AC014E5F5F4F2417350748F04E0FE6
:100E90005F1F50933601409335018193919302C0B7
:100EA000E0E0F0E0CF01DF91CF911F910F91089525
:100EB000CF93DF93009709F481C0FC01329713822E
:100EC0001282A0913701B0913801109781F42081EE
:100ED0003181820F931F20913501309136012817FF
:100EE000390751F5F0933601E093350167C0ED0104
:100EF00020E030E0CE17DF0740F44A815B819E019D
:100F000041155105F1F0EA01F5CFD383C283408149
:100F10005181840F951FC817D90759F48881998189
:100F2000840F951F0296918380838A819B8193838E
:100F300082832115310529F4F0933801E0933701BC
:100F40003DC0E901FB83EA8349915991C40FD51F44
:100F5000EC17FD0761F480819181840F951F029643
:100F6000E90199838883828193819B838A83E0E06E
:100F7000F0E012968D919C911397009719F0FD0166
:100F8000DC01F7CF8D919C9111979D012E5F3F4F12
:100F9000820F931F209135013091360128173907B0
:100FA00069F4309729F4109238011092370102C089
:100FB00013821282B0933601A0933501DF91CF9155
:060FC0000895F894FFCF34
:100FC600040E050000000000000039018000417792
:0A0FD60061793A200020636D0000ED
:107E0000112484B714BE81FFF0D085E080938100F7
:107E100082E08093C00088E18093C10086E0809377
:107E2000C20080E18093C4008EE0C9D0259A86E02C
:107E300020E33CEF91E0309385002093840096BBD3
:107E4000B09BFECF1D9AA8958150A9F7CC24DD24C4
:107E500088248394B5E0AB2EA1E19A2EF3E0BF2EE7
:107E6000A2D0813461F49FD0082FAFD0023811F036
:107E7000013811F484E001C083E08DD089C08234E0
:107E800011F484E103C0853419F485E0A6D080C0E4
:107E9000853579F488D0E82EFF2485D0082F10E0AE
:107EA000102F00270E291F29000F111F8ED06801E7
:107EB0006FC0863521F484E090D080E0DECF843638
:107EC00009F040C070D06FD0082F6DD080E0C81688
:107ED00080E7D80618F4F601B7BEE895C0E0D1E017
:107EE00062D089930C17E1F7F0E0CF16F0E7DF06D8
:107EF00018F0F601B7BEE89568D007B600FCFDCFD4
:107F0000A601A0E0B1E02C9130E011968C91119780
:107F100090E0982F8827822B932B1296FA010C0160
:107F200087BEE89511244E5F5F4FF1E0A038BF0790
:107F300051F7F601A7BEE89507B600FCFDCF97BE46
:107F4000E89526C08437B1F42ED02DD0F82E2BD052
:107F50003CD0F601EF2C8F010F5F1F4F84911BD097
:107F6000EA94F801C1F70894C11CD11CFA94CF0C13
:107F7000D11C0EC0853739F428D08EE10CD085E9AC
:107F80000AD08FE07ACF813511F488E018D01DD067
:107F900080E101D065CF982F8091C00085FFFCCF94
:107FA0009093C60008958091C00087FFFCCF809118
:107FB000C00084FD01C0A8958091C6000895E0E648
:107FC000F0E098E1908380830895EDDF803219F02E
:107FD00088E0F5DFFFCF84E1DECF1F93182FE3DFCA
:107FE0001150E9F7F2DF1F91089580E0E8DFEE27F6
:047FF000FF270994CA
:027FFE00040479
:0400000300007E007B
:00000001FF
